{
  "_format": "hh-sol-artifact-1",
  "contractName": "MyEpicNFT",
  "sourceName": "contracts/MyEpicNFT.sol",
  "abi": [
    {
      "inputs": [],
      "stateMutability": "nonpayable",
      "type": "constructor"
    },
    {
      "anonymous": false,
      "inputs": [
        {
          "indexed": true,
          "internalType": "address",
          "name": "owner",
          "type": "address"
        },
        {
          "indexed": true,
          "internalType": "address",
          "name": "approved",
          "type": "address"
        },
        {
          "indexed": true,
          "internalType": "uint256",
          "name": "tokenId",
          "type": "uint256"
        }
      ],
      "name": "Approval",
      "type": "event"
    },
    {
      "anonymous": false,
      "inputs": [
        {
          "indexed": true,
          "internalType": "address",
          "name": "owner",
          "type": "address"
        },
        {
          "indexed": true,
          "internalType": "address",
          "name": "operator",
          "type": "address"
        },
        {
          "indexed": false,
          "internalType": "bool",
          "name": "approved",
          "type": "bool"
        }
      ],
      "name": "ApprovalForAll",
      "type": "event"
    },
    {
      "anonymous": false,
      "inputs": [
        {
          "indexed": false,
          "internalType": "address",
          "name": "sender",
          "type": "address"
        },
        {
          "indexed": false,
          "internalType": "uint256",
          "name": "tokenId",
          "type": "uint256"
        }
      ],
      "name": "NewEpicNFTMinted",
      "type": "event"
    },
    {
      "anonymous": false,
      "inputs": [
        {
          "indexed": true,
          "internalType": "address",
          "name": "from",
          "type": "address"
        },
        {
          "indexed": true,
          "internalType": "address",
          "name": "to",
          "type": "address"
        },
        {
          "indexed": true,
          "internalType": "uint256",
          "name": "tokenId",
          "type": "uint256"
        }
      ],
      "name": "Transfer",
      "type": "event"
    },
    {
      "inputs": [
        {
          "internalType": "address",
          "name": "to",
          "type": "address"
        },
        {
          "internalType": "uint256",
          "name": "tokenId",
          "type": "uint256"
        }
      ],
      "name": "approve",
      "outputs": [],
      "stateMutability": "nonpayable",
      "type": "function"
    },
    {
      "inputs": [
        {
          "internalType": "address",
          "name": "owner",
          "type": "address"
        }
      ],
      "name": "balanceOf",
      "outputs": [
        {
          "internalType": "uint256",
          "name": "",
          "type": "uint256"
        }
      ],
      "stateMutability": "view",
      "type": "function"
    },
    {
      "inputs": [
        {
          "internalType": "uint256",
          "name": "tokenId",
          "type": "uint256"
        }
      ],
      "name": "getApproved",
      "outputs": [
        {
          "internalType": "address",
          "name": "",
          "type": "address"
        }
      ],
      "stateMutability": "view",
      "type": "function"
    },
    {
      "inputs": [],
      "name": "getTotalNFTsMintedSoFar",
      "outputs": [
        {
          "internalType": "uint256",
          "name": "",
          "type": "uint256"
        }
      ],
      "stateMutability": "view",
      "type": "function"
    },
    {
      "inputs": [
        {
          "internalType": "address",
          "name": "owner",
          "type": "address"
        },
        {
          "internalType": "address",
          "name": "operator",
          "type": "address"
        }
      ],
      "name": "isApprovedForAll",
      "outputs": [
        {
          "internalType": "bool",
          "name": "",
          "type": "bool"
        }
      ],
      "stateMutability": "view",
      "type": "function"
    },
    {
      "inputs": [],
      "name": "makeAnEpicNFT",
      "outputs": [],
      "stateMutability": "nonpayable",
      "type": "function"
    },
    {
      "inputs": [],
      "name": "name",
      "outputs": [
        {
          "internalType": "string",
          "name": "",
          "type": "string"
        }
      ],
      "stateMutability": "view",
      "type": "function"
    },
    {
      "inputs": [
        {
          "internalType": "uint256",
          "name": "tokenId",
          "type": "uint256"
        }
      ],
      "name": "ownerOf",
      "outputs": [
        {
          "internalType": "address",
          "name": "",
          "type": "address"
        }
      ],
      "stateMutability": "view",
      "type": "function"
    },
    {
      "inputs": [
        {
          "internalType": "uint256",
          "name": "tokenId",
          "type": "uint256"
        }
      ],
      "name": "pickRandomColor",
      "outputs": [
        {
          "internalType": "string",
          "name": "",
          "type": "string"
        }
      ],
      "stateMutability": "view",
      "type": "function"
    },
    {
      "inputs": [
        {
          "internalType": "string",
          "name": "word_number",
          "type": "string"
        },
        {
          "internalType": "uint256",
          "name": "tokenId",
          "type": "uint256"
        }
      ],
      "name": "pickRandomWord",
      "outputs": [
        {
          "internalType": "string",
          "name": "",
          "type": "string"
        }
      ],
      "stateMutability": "view",
      "type": "function"
    },
    {
      "inputs": [
        {
          "internalType": "address",
          "name": "from",
          "type": "address"
        },
        {
          "internalType": "address",
          "name": "to",
          "type": "address"
        },
        {
          "internalType": "uint256",
          "name": "tokenId",
          "type": "uint256"
        }
      ],
      "name": "safeTransferFrom",
      "outputs": [],
      "stateMutability": "nonpayable",
      "type": "function"
    },
    {
      "inputs": [
        {
          "internalType": "address",
          "name": "from",
          "type": "address"
        },
        {
          "internalType": "address",
          "name": "to",
          "type": "address"
        },
        {
          "internalType": "uint256",
          "name": "tokenId",
          "type": "uint256"
        },
        {
          "internalType": "bytes",
          "name": "_data",
          "type": "bytes"
        }
      ],
      "name": "safeTransferFrom",
      "outputs": [],
      "stateMutability": "nonpayable",
      "type": "function"
    },
    {
      "inputs": [
        {
          "internalType": "address",
          "name": "operator",
          "type": "address"
        },
        {
          "internalType": "bool",
          "name": "approved",
          "type": "bool"
        }
      ],
      "name": "setApprovalForAll",
      "outputs": [],
      "stateMutability": "nonpayable",
      "type": "function"
    },
    {
      "inputs": [
        {
          "internalType": "bytes4",
          "name": "interfaceId",
          "type": "bytes4"
        }
      ],
      "name": "supportsInterface",
      "outputs": [
        {
          "internalType": "bool",
          "name": "",
          "type": "bool"
        }
      ],
      "stateMutability": "view",
      "type": "function"
    },
    {
      "inputs": [],
      "name": "symbol",
      "outputs": [
        {
          "internalType": "string",
          "name": "",
          "type": "string"
        }
      ],
      "stateMutability": "view",
      "type": "function"
    },
    {
      "inputs": [
        {
          "internalType": "uint256",
          "name": "tokenId",
          "type": "uint256"
        }
      ],
      "name": "tokenURI",
      "outputs": [
        {
          "internalType": "string",
          "name": "",
          "type": "string"
        }
      ],
      "stateMutability": "view",
      "type": "function"
    },
    {
      "inputs": [
        {
          "internalType": "address",
          "name": "from",
          "type": "address"
        },
        {
          "internalType": "address",
          "name": "to",
          "type": "address"
        },
        {
          "internalType": "uint256",
          "name": "tokenId",
          "type": "uint256"
        }
      ],
      "name": "transferFrom",
      "outputs": [],
      "stateMutability": "nonpayable",
      "type": "function"
    }
  ],
  "bytecode": "0x608060405260405180610100016040528060d3815260200162004a6e60d39139600890805190602001906200003692919062000a7a565b5060405180608001604052806056815260200162004b4160569139600990805190602001906200006892919062000a7a565b506040518060c001604052806040518060400160405280600381526020017f726564000000000000000000000000000000000000000000000000000000000081525081526020016040518060400160405280600781526020017f233038433241380000000000000000000000000000000000000000000000000081525081526020016040518060400160405280600581526020017f626c61636b00000000000000000000000000000000000000000000000000000081525081526020016040518060400160405280600681526020017f79656c6c6f77000000000000000000000000000000000000000000000000000081525081526020016040518060400160405280600481526020017f626c75650000000000000000000000000000000000000000000000000000000081525081526020016040518060400160405280600581526020017f677265656e000000000000000000000000000000000000000000000000000000815250815250600a906006620001e692919062000b0b565b50348015620001f457600080fd5b506040518060400160405280600981526020017f5371756172654e465400000000000000000000000000000000000000000000008152506040518060400160405280600681526020017f535155415245000000000000000000000000000000000000000000000000000081525081600090805190602001906200027992919062000a7a565b5080600190805190602001906200029292919062000a7a565b505050620002c460405180606001604052806022815260200162004a4c60229139620009ae60201b620010fa1760201c565b6040518061012001604052806040518060400160405280600681526020017f736166617269000000000000000000000000000000000000000000000000000081525081526020016040518060400160405280600781526020017f686172646861740000000000000000000000000000000000000000000000000081525081526020016040518060400160405280600781526020017f74727566666c650000000000000000000000000000000000000000000000000081525081526020016040518060400160405280600881526020017f736f6c696469747900000000000000000000000000000000000000000000000081525081526020016040518060400160405280600681526020017f7673636f6465000000000000000000000000000000000000000000000000000081525081526020016040518060400160405280600781526020017f7375626c696d650000000000000000000000000000000000000000000000000081525081526020016040518060400160405280600381526020017f6e6674000000000000000000000000000000000000000000000000000000000081525081526020016040518060400160405280600781526020017f77696e646f77730000000000000000000000000000000000000000000000000081525081526020016040518060400160405280600681526020017f6769746875620000000000000000000000000000000000000000000000000000815250815250600b604051620004f19062000d4a565b90815260200160405180910390209060096200050f92919062000b72565b506040518061012001604052806040518060400160405280600881526020017f657468657265756d00000000000000000000000000000000000000000000000081525081526020016040518060400160405280600781526020017f626974636f696e0000000000000000000000000000000000000000000000000081525081526020016040518060400160405280600781526020017f706f6c79676f6e0000000000000000000000000000000000000000000000000081525081526020016040518060400160405280600981526020017f6269746275636b6574000000000000000000000000000000000000000000000081525081526020016040518060400160405280600581526020017f6d6574696300000000000000000000000000000000000000000000000000000081525081526020016040518060400160405280600981526020017f6176616c616e636865000000000000000000000000000000000000000000000081525081526020016040518060400160405280600881526020017f6d6574616d61736b00000000000000000000000000000000000000000000000081525081526020016040518060400160405280600381526020017f64616f000000000000000000000000000000000000000000000000000000000081525081526020016040518060400160405280600581526020017f6d61636f73000000000000000000000000000000000000000000000000000000815250815250600b6040516200073d9062000d33565b90815260200160405180910390209060096200075b92919062000b72565b506040518061012001604052806040518060400160405280600681526020017f77616c6c6574000000000000000000000000000000000000000000000000000081525081526020016040518060400160405280600781526020017f676974636f696e0000000000000000000000000000000000000000000000000081525081526020016040518060400160405280600881526020017f6b6579626f61726400000000000000000000000000000000000000000000000081525081526020016040518060400160405280600581526020017f6d6f75736500000000000000000000000000000000000000000000000000000081525081526020016040518060400160405280600681526020017f6c6170746f70000000000000000000000000000000000000000000000000000081525081526020016040518060400160405280600681526020017f6d6f62696c65000000000000000000000000000000000000000000000000000081525081526020016040518060400160405280600b81526020017f6170706c69636174696f6e00000000000000000000000000000000000000000081525081526020016040518060400160405280600481526020017f646566690000000000000000000000000000000000000000000000000000000081525081526020016040518060400160405280600581526020017f6c696e7578000000000000000000000000000000000000000000000000000000815250815250600b604051620009899062000d1c565b9081526020016040518091039020906009620009a792919062000b72565b5062000ed3565b62000a4e81604051602401620009c5919062000d61565b6040516020818303038152906040527f41304fac000000000000000000000000000000000000000000000000000000007bffffffffffffffffffffffffffffffffffffffffffffffffffffffff19166020820180517bffffffffffffffffffffffffffffffffffffffffffffffffffffffff838183161783525050505062000a5160201b60201c565b50565b60008151905060006a636f6e736f6c652e6c6f679050602083016000808483855afa5050505050565b82805462000a889062000de2565b90600052602060002090601f01602090048101928262000aac576000855562000af8565b82601f1062000ac757805160ff191683800117855562000af8565b8280016001018555821562000af8579182015b8281111562000af757825182559160200191906001019062000ada565b5b50905062000b07919062000bd9565b5090565b82805482825590600052602060002090810192821562000b5f579160200282015b8281111562000b5e57825182908051906020019062000b4d92919062000a7a565b509160200191906001019062000b2c565b5b50905062000b6e919062000bf8565b5090565b82805482825590600052602060002090810192821562000bc6579160200282015b8281111562000bc557825182908051906020019062000bb492919062000a7a565b509160200191906001019062000b93565b5b50905062000bd5919062000bf8565b5090565b5b8082111562000bf457600081600090555060010162000bda565b5090565b5b8082111562000c1c576000818162000c12919062000c20565b5060010162000bf9565b5090565b50805462000c2e9062000de2565b6000825580601f1062000c42575062000c63565b601f01602090049060005260206000209081019062000c62919062000bd9565b5b50565b600062000c738262000d85565b62000c7f818562000d90565b935062000c9181856020860162000dac565b62000c9c8162000e47565b840191505092915050565b600062000cb6600a8362000da1565b915062000cc38262000e58565b600a82019050919050565b600062000cdd600b8362000da1565b915062000cea8262000e81565b600b82019050919050565b600062000d04600a8362000da1565b915062000d118262000eaa565b600a82019050919050565b600062000d298262000ca7565b9150819050919050565b600062000d408262000cce565b9150819050919050565b600062000d578262000cf5565b9150819050919050565b6000602082019050818103600083015262000d7d818462000c66565b905092915050565b600081519050919050565b600082825260208201905092915050565b600081905092915050565b60005b8381101562000dcc57808201518184015260208101905062000daf565b8381111562000ddc576000848401525b50505050565b6000600282049050600182168062000dfb57607f821691505b6020821081141562000e125762000e1162000e18565b5b50919050565b7f4e487b7100000000000000000000000000000000000000000000000000000000600052602260045260246000fd5b6000601f19601f8301169050919050565b7f54484952445f574f524400000000000000000000000000000000000000000000600082015250565b7f5345434f4e445f574f5244000000000000000000000000000000000000000000600082015250565b7f46495253545f574f524400000000000000000000000000000000000000000000600082015250565b613b698062000ee36000396000f3fe608060405234801561001057600080fd5b506004361061010b5760003560e01c80636352211e116100a2578063b88d4fde11610071578063b88d4fde146102ca578063c87b56dd146102e6578063de9d132f14610316578063e985e9c514610320578063f3cfcff1146103505761010b565b80636352211e1461023057806370a082311461026057806395d89b4114610290578063a22cb465146102ae5761010b565b8063095ea7b3116100de578063095ea7b3146101ac57806323b872dd146101c857806342842e0e146101e4578063514dc8c6146102005761010b565b806301ffc9a714610110578063060475901461014057806306fdde031461015e578063081812fc1461017c575b600080fd5b61012a6004803603810190610125919061258e565b610380565b6040516101379190612ce4565b60405180910390f35b610148610462565b6040516101559190612f7f565b60405180910390f35b610166610473565b6040516101739190612cff565b60405180910390f35b61019660048036038101906101919190612634565b610505565b6040516101a39190612c54565b60405180910390f35b6101c660048036038101906101c19190612552565b61058a565b005b6101e260048036038101906101dd919061244c565b6106a2565b005b6101fe60048036038101906101f9919061244c565b610702565b005b61021a60048036038101906102159190612634565b610722565b6040516102279190612cff565b60405180910390f35b61024a60048036038101906102459190612634565b610840565b6040516102579190612c54565b60405180910390f35b61027a600480360381019061027591906123e7565b6108f2565b6040516102879190612f7f565b60405180910390f35b6102986109aa565b6040516102a59190612cff565b60405180910390f35b6102c860048036038101906102c39190612516565b610a3c565b005b6102e460048036038101906102df919061249b565b610a52565b005b61030060048036038101906102fb9190612634565b610ab4565b60405161030d9190612cff565b60405180910390f35b61031e610c06565b005b61033a60048036038101906103359190612410565b610f0d565b6040516103479190612ce4565b60405180910390f35b61036a600480360381019061036591906125e0565b610fa1565b6040516103779190612cff565b60405180910390f35b60007f80ac58cd000000000000000000000000000000000000000000000000000000007bffffffffffffffffffffffffffffffffffffffffffffffffffffffff1916827bffffffffffffffffffffffffffffffffffffffffffffffffffffffff1916148061044b57507f5b5e139f000000000000000000000000000000000000000000000000000000007bffffffffffffffffffffffffffffffffffffffffffffffffffffffff1916827bffffffffffffffffffffffffffffffffffffffffffffffffffffffff1916145b8061045b575061045a82611193565b5b9050919050565b600061046e60076111fd565b905090565b60606000805461048290613244565b80601f01602080910402602001604051908101604052809291908181526020018280546104ae90613244565b80156104fb5780601f106104d0576101008083540402835291602001916104fb565b820191906000526020600020905b8154815290600101906020018083116104de57829003601f168201915b5050505050905090565b60006105108261120b565b61054f576040517f08c379a000000000000000000000000000000000000000000000000000000000815260040161054690612edf565b60405180910390fd5b6004600083815260200190815260200160002060009054906101000a900473ffffffffffffffffffffffffffffffffffffffff169050919050565b600061059582610840565b90508073ffffffffffffffffffffffffffffffffffffffff168373ffffffffffffffffffffffffffffffffffffffff161415610606576040517f08c379a00000000000000000000000000000000000000000000000000000000081526004016105fd90612f1f565b60405180910390fd5b8073ffffffffffffffffffffffffffffffffffffffff16610625611277565b73ffffffffffffffffffffffffffffffffffffffff16148061065457506106538161064e611277565b610f0d565b5b610693576040517f08c379a000000000000000000000000000000000000000000000000000000000815260040161068a90612e1f565b60405180910390fd5b61069d838361127f565b505050565b6106b36106ad611277565b82611338565b6106f2576040517f08c379a00000000000000000000000000000000000000000000000000000000081526004016106e990612f5f565b60405180910390fd5b6106fd838383611416565b505050565b61071d83838360405180602001604052806000815250610a52565b505050565b606060006107566107328461167d565b6040516020016107429190612c32565b60405160208183030381529060405261182a565b9050600a805490508161076991906132f0565b9050600a81815481106107a5577f4e487b7100000000000000000000000000000000000000000000000000000000600052603260045260246000fd5b9060005260206000200180546107ba90613244565b80601f01602080910402602001604051908101604052809291908181526020018280546107e690613244565b80156108335780601f1061080857610100808354040283529160200191610833565b820191906000526020600020905b81548152906001019060200180831161081657829003601f168201915b5050505050915050919050565b6000806002600084815260200190815260200160002060009054906101000a900473ffffffffffffffffffffffffffffffffffffffff169050600073ffffffffffffffffffffffffffffffffffffffff168173ffffffffffffffffffffffffffffffffffffffff1614156108e9576040517f08c379a00000000000000000000000000000000000000000000000000000000081526004016108e090612e5f565b60405180910390fd5b80915050919050565b60008073ffffffffffffffffffffffffffffffffffffffff168273ffffffffffffffffffffffffffffffffffffffff161415610963576040517f08c379a000000000000000000000000000000000000000000000000000000000815260040161095a90612e3f565b60405180910390fd5b600360008373ffffffffffffffffffffffffffffffffffffffff1673ffffffffffffffffffffffffffffffffffffffff168152602001908152602001600020549050919050565b6060600180546109b990613244565b80601f01602080910402602001604051908101604052809291908181526020018280546109e590613244565b8015610a325780601f10610a0757610100808354040283529160200191610a32565b820191906000526020600020905b815481529060010190602001808311610a1557829003601f168201915b5050505050905090565b610a4e610a47611277565b838361185d565b5050565b610a63610a5d611277565b83611338565b610aa2576040517f08c379a0000000000000000000000000000000000000000000000000000000008152600401610a9990612f5f565b60405180910390fd5b610aae848484846119ca565b50505050565b6060610abf8261120b565b610afe576040517f08c379a0000000000000000000000000000000000000000000000000000000008152600401610af590612ebf565b60405180910390fd5b6000600660008481526020019081526020016000208054610b1e90613244565b80601f0160208091040260200160405190810160405280929190818152602001828054610b4a90613244565b8015610b975780601f10610b6c57610100808354040283529160200191610b97565b820191906000526020600020905b815481529060010190602001808311610b7a57829003601f168201915b505050505090506000610ba8611a26565b9050600081511415610bbe578192505050610c01565b600082511115610bf3578082604051602001610bdb929190612b0b565b60405160208183030381529060405292505050610c01565b610bfc84611a3d565b925050505b919050565b600a610c1260076111fd565b10610c52576040517f08c379a0000000000000000000000000000000000000000000000000000000008152600401610c4990612f3f565b60405180910390fd5b6000610c5e60076111fd565b90506000610ca16040518060400160405280600a81526020017f46495253545f574f52440000000000000000000000000000000000000000000081525083610fa1565b90506000610ce46040518060400160405280600b81526020017f5345434f4e445f574f524400000000000000000000000000000000000000000081525084610fa1565b90506000610d276040518060400160405280600a81526020017f54484952445f574f52440000000000000000000000000000000000000000000081525085610fa1565b90506000838383604051602001610d4093929190612b2f565b60405160208183030381529060405290506000610d5c86610722565b90506000600882600985604051602001610d799493929190612b60565b60405160208183030381529060405290506000610dbe84610d9984611ae4565b604051602001610daa929190612bcb565b604051602081830303815290604052611ae4565b9050600081604051602001610dd39190612c10565b6040516020818303038152906040529050610dee338a611ca2565b610e2c6040518060400160405280601581526020017f0a2d2d2d2d2d2d2d2d2d2d2d2d2d2d2d2d2d2d2d2d00000000000000000000008152506110fa565b610e5481604051602001610e409190612ba9565b6040516020818303038152906040526110fa565b610e926040518060400160405280601581526020017f2d2d2d2d2d2d2d2d2d2d2d2d2d2d2d2d2d2d2d2d0a00000000000000000000008152506110fa565b610eb5604051806060016040528060258152602001613acf602591398a33611cc0565b610ebf8982611d5f565b7febb98688741ffa4c7589bf325de30cf7becb63de567842e1ccdb6cb949fdc82c338a604051610ef0929190612cbb565b60405180910390a1610f026007611dd3565b505050505050505050565b6000600560008473ffffffffffffffffffffffffffffffffffffffff1673ffffffffffffffffffffffffffffffffffffffff16815260200190815260200160002060008373ffffffffffffffffffffffffffffffffffffffff1673ffffffffffffffffffffffffffffffffffffffff16815260200190815260200160002060009054906101000a900460ff16905092915050565b60606000610fd784610fb28561167d565b604051602001610fc3929190612b0b565b60405160208183030381529060405261182a565b9050600b84604051610fe99190612af4565b9081526020016040518091039020805490508161100691906132f0565b9050600b846040516110189190612af4565b9081526020016040518091039020818154811061105e577f4e487b7100000000000000000000000000000000000000000000000000000000600052603260045260246000fd5b90600052602060002001805461107390613244565b80601f016020809104026020016040519081016040528092919081815260200182805461109f90613244565b80156110ec5780601f106110c1576101008083540402835291602001916110ec565b820191906000526020600020905b8154815290600101906020018083116110cf57829003601f168201915b505050505091505092915050565b6111908160405160240161110e9190612cff565b6040516020818303038152906040527f41304fac000000000000000000000000000000000000000000000000000000007bffffffffffffffffffffffffffffffffffffffffffffffffffffffff19166020820180517bffffffffffffffffffffffffffffffffffffffffffffffffffffffff8381831617835250505050611de9565b50565b60007f01ffc9a7000000000000000000000000000000000000000000000000000000007bffffffffffffffffffffffffffffffffffffffffffffffffffffffff1916827bffffffffffffffffffffffffffffffffffffffffffffffffffffffff1916149050919050565b600081600001549050919050565b60008073ffffffffffffffffffffffffffffffffffffffff166002600084815260200190815260200160002060009054906101000a900473ffffffffffffffffffffffffffffffffffffffff1673ffffffffffffffffffffffffffffffffffffffff1614159050919050565b600033905090565b816004600083815260200190815260200160002060006101000a81548173ffffffffffffffffffffffffffffffffffffffff021916908373ffffffffffffffffffffffffffffffffffffffff160217905550808273ffffffffffffffffffffffffffffffffffffffff166112f283610840565b73ffffffffffffffffffffffffffffffffffffffff167f8c5be1e5ebec7d5bd14f71427d1e84f3dd0314c0f7b2291e5b200ac8c7c3b92560405160405180910390a45050565b60006113438261120b565b611382576040517f08c379a000000000000000000000000000000000000000000000000000000000815260040161137990612dff565b60405180910390fd5b600061138d83610840565b90508073ffffffffffffffffffffffffffffffffffffffff168473ffffffffffffffffffffffffffffffffffffffff1614806113cf57506113ce8185610f0d565b5b8061140d57508373ffffffffffffffffffffffffffffffffffffffff166113f584610505565b73ffffffffffffffffffffffffffffffffffffffff16145b91505092915050565b8273ffffffffffffffffffffffffffffffffffffffff1661143682610840565b73ffffffffffffffffffffffffffffffffffffffff161461148c576040517f08c379a000000000000000000000000000000000000000000000000000000000815260040161148390612d7f565b60405180910390fd5b600073ffffffffffffffffffffffffffffffffffffffff168273ffffffffffffffffffffffffffffffffffffffff1614156114fc576040517f08c379a00000000000000000000000000000000000000000000000000000000081526004016114f390612dbf565b60405180910390fd5b611507838383611e12565b61151260008261127f565b6001600360008573ffffffffffffffffffffffffffffffffffffffff1673ffffffffffffffffffffffffffffffffffffffff1681526020019081526020016000206000828254611562919061315a565b925050819055506001600360008473ffffffffffffffffffffffffffffffffffffffff1673ffffffffffffffffffffffffffffffffffffffff16815260200190815260200160002060008282546115b99190613079565b92505081905550816002600083815260200190815260200160002060006101000a81548173ffffffffffffffffffffffffffffffffffffffff021916908373ffffffffffffffffffffffffffffffffffffffff160217905550808273ffffffffffffffffffffffffffffffffffffffff168473ffffffffffffffffffffffffffffffffffffffff167fddf252ad1be2c89b69c2b068fc378daa952ba7f163c4a11628f55a4df523b3ef60405160405180910390a4611678838383611e17565b505050565b606060008214156116c5576040518060400160405280600181526020017f30000000000000000000000000000000000000000000000000000000000000008152509050611825565b600082905060005b600082146116f75780806116e0906132a7565b915050600a826116f091906130cf565b91506116cd565b60008167ffffffffffffffff811115611739577f4e487b7100000000000000000000000000000000000000000000000000000000600052604160045260246000fd5b6040519080825280601f01601f19166020018201604052801561176b5781602001600182028036833780820191505090505b5090505b6000851461181e57600182611784919061315a565b9150600a8561179391906132f0565b603061179f9190613079565b60f81b8183815181106117db577f4e487b7100000000000000000000000000000000000000000000000000000000600052603260045260246000fd5b60200101907effffffffffffffffffffffffffffffffffffffffffffffffffffffffffffff1916908160001a905350600a8561181791906130cf565b945061176f565b8093505050505b919050565b60008160405160200161183d9190612af4565b6040516020818303038152906040528051906020012060001c9050919050565b8173ffffffffffffffffffffffffffffffffffffffff168373ffffffffffffffffffffffffffffffffffffffff1614156118cc576040517f08c379a00000000000000000000000000000000000000000000000000000000081526004016118c390612ddf565b60405180910390fd5b80600560008573ffffffffffffffffffffffffffffffffffffffff1673ffffffffffffffffffffffffffffffffffffffff16815260200190815260200160002060008473ffffffffffffffffffffffffffffffffffffffff1673ffffffffffffffffffffffffffffffffffffffff16815260200190815260200160002060006101000a81548160ff0219169083151502179055508173ffffffffffffffffffffffffffffffffffffffff168373ffffffffffffffffffffffffffffffffffffffff167f17307eab39ab6107e8899845ad3d59bd9653f200f220920489ca2b5937696c31836040516119bd9190612ce4565b60405180910390a3505050565b6119d5848484611416565b6119e184848484611e1c565b611a20576040517f08c379a0000000000000000000000000000000000000000000000000000000008152600401611a1790612d5f565b60405180910390fd5b50505050565b606060405180602001604052806000815250905090565b6060611a488261120b565b611a87576040517f08c379a0000000000000000000000000000000000000000000000000000000008152600401611a7e90612eff565b60405180910390fd5b6000611a91611a26565b90506000815111611ab15760405180602001604052806000815250611adc565b80611abb8461167d565b604051602001611acc929190612b0b565b6040516020818303038152906040525b915050919050565b60606000825190506000811415611b0d5760405180602001604052806000815250915050611c9d565b60006003600283611b1e9190613079565b611b2891906130cf565b6004611b349190613100565b90506000602082611b459190613079565b67ffffffffffffffff811115611b84577f4e487b7100000000000000000000000000000000000000000000000000000000600052604160045260246000fd5b6040519080825280601f01601f191660200182016040528015611bb65781602001600182028036833780820191505090505b5090506000604051806060016040528060408152602001613af4604091399050600181016020830160005b86811015611c5a5760038101905062ffffff818a015116603f8160121c168401518060081b905060ff603f83600c1c1686015116810190508060081b905060ff603f8360061c1686015116810190508060081b905060ff603f831686015116810190508060e01b90508084526004840193505050611be1565b506003860660018114611c745760028114611c8457611c8f565b613d3d60f01b6002830352611c8f565b603d60f81b60018303525b508484525050819450505050505b919050565b611cbc828260405180602001604052806000815250611fb3565b5050565b611d5a838383604051602401611cd893929190612d21565b6040516020818303038152906040527fe3849f79000000000000000000000000000000000000000000000000000000007bffffffffffffffffffffffffffffffffffffffffffffffffffffffff19166020820180517bffffffffffffffffffffffffffffffffffffffffffffffffffffffff8381831617835250505050611de9565b505050565b611d688261120b565b611da7576040517f08c379a0000000000000000000000000000000000000000000000000000000008152600401611d9e90612e7f565b60405180910390fd5b80600660008481526020019081526020016000209080519060200190611dce92919061220b565b505050565b6001816000016000828254019250508190555050565b60008151905060006a636f6e736f6c652e6c6f679050602083016000808483855afa5050505050565b505050565b505050565b6000611e3d8473ffffffffffffffffffffffffffffffffffffffff1661200e565b15611fa6578373ffffffffffffffffffffffffffffffffffffffff1663150b7a02611e66611277565b8786866040518563ffffffff1660e01b8152600401611e889493929190612c6f565b602060405180830381600087803b158015611ea257600080fd5b505af1925050508015611ed357506040513d601f19601f82011682018060405250810190611ed091906125b7565b60015b611f56573d8060008114611f03576040519150601f19603f3d011682016040523d82523d6000602084013e611f08565b606091505b50600081511415611f4e576040517f08c379a0000000000000000000000000000000000000000000000000000000008152600401611f4590612d5f565b60405180910390fd5b805181602001fd5b63150b7a0260e01b7bffffffffffffffffffffffffffffffffffffffffffffffffffffffff1916817bffffffffffffffffffffffffffffffffffffffffffffffffffffffff191614915050611fab565b600190505b949350505050565b611fbd8383612031565b611fca6000848484611e1c565b612009576040517f08c379a000000000000000000000000000000000000000000000000000000000815260040161200090612d5f565b60405180910390fd5b505050565b6000808273ffffffffffffffffffffffffffffffffffffffff163b119050919050565b600073ffffffffffffffffffffffffffffffffffffffff168273ffffffffffffffffffffffffffffffffffffffff1614156120a1576040517f08c379a000000000000000000000000000000000000000000000000000000000815260040161209890612e9f565b60405180910390fd5b6120aa8161120b565b156120ea576040517f08c379a00000000000000000000000000000000000000000000000000000000081526004016120e190612d9f565b60405180910390fd5b6120f660008383611e12565b6001600360008473ffffffffffffffffffffffffffffffffffffffff1673ffffffffffffffffffffffffffffffffffffffff16815260200190815260200160002060008282546121469190613079565b92505081905550816002600083815260200190815260200160002060006101000a81548173ffffffffffffffffffffffffffffffffffffffff021916908373ffffffffffffffffffffffffffffffffffffffff160217905550808273ffffffffffffffffffffffffffffffffffffffff16600073ffffffffffffffffffffffffffffffffffffffff167fddf252ad1be2c89b69c2b068fc378daa952ba7f163c4a11628f55a4df523b3ef60405160405180910390a461220760008383611e17565b5050565b82805461221790613244565b90600052602060002090601f0160209004810192826122395760008555612280565b82601f1061225257805160ff1916838001178555612280565b82800160010185558215612280579182015b8281111561227f578251825591602001919060010190612264565b5b50905061228d9190612291565b5090565b5b808211156122aa576000816000905550600101612292565b5090565b60006122c16122bc84612fbf565b612f9a565b9050828152602081018484840111156122d957600080fd5b6122e4848285613202565b509392505050565b60006122ff6122fa84612ff0565b612f9a565b90508281526020810184848401111561231757600080fd5b612322848285613202565b509392505050565b60008135905061233981613a72565b92915050565b60008135905061234e81613a89565b92915050565b60008135905061236381613aa0565b92915050565b60008151905061237881613aa0565b92915050565b600082601f83011261238f57600080fd5b813561239f8482602086016122ae565b91505092915050565b600082601f8301126123b957600080fd5b81356123c98482602086016122ec565b91505092915050565b6000813590506123e181613ab7565b92915050565b6000602082840312156123f957600080fd5b60006124078482850161232a565b91505092915050565b6000806040838503121561242357600080fd5b60006124318582860161232a565b92505060206124428582860161232a565b9150509250929050565b60008060006060848603121561246157600080fd5b600061246f8682870161232a565b93505060206124808682870161232a565b9250506040612491868287016123d2565b9150509250925092565b600080600080608085870312156124b157600080fd5b60006124bf8782880161232a565b94505060206124d08782880161232a565b93505060406124e1878288016123d2565b925050606085013567ffffffffffffffff8111156124fe57600080fd5b61250a8782880161237e565b91505092959194509250565b6000806040838503121561252957600080fd5b60006125378582860161232a565b92505060206125488582860161233f565b9150509250929050565b6000806040838503121561256557600080fd5b60006125738582860161232a565b9250506020612584858286016123d2565b9150509250929050565b6000602082840312156125a057600080fd5b60006125ae84828501612354565b91505092915050565b6000602082840312156125c957600080fd5b60006125d784828501612369565b91505092915050565b600080604083850312156125f357600080fd5b600083013567ffffffffffffffff81111561260d57600080fd5b612619858286016123a8565b925050602061262a858286016123d2565b9150509250929050565b60006020828403121561264657600080fd5b6000612654848285016123d2565b91505092915050565b6126668161318e565b82525050565b612675816131a0565b82525050565b600061268682613036565b612690818561304c565b93506126a0818560208601613211565b6126a9816133dd565b840191505092915050565b60006126bf82613041565b6126c9818561305d565b93506126d9818560208601613211565b6126e2816133dd565b840191505092915050565b60006126f882613041565b612702818561306e565b9350612712818560208601613211565b80840191505092915050565b6000815461272b81613244565b612735818661306e565b94506001821660008114612750576001811461276157612794565b60ff19831686528186019350612794565b61276a85613021565b60005b8381101561278c5781548189015260018201915060208101905061276d565b838801955050505b50505092915050565b60006127aa60258361306e565b91506127b5826133ee565b602582019050919050565b60006127cd60328361305d565b91506127d88261343d565b604082019050919050565b60006127f060258361305d565b91506127fb8261348c565b604082019050919050565b6000612813601c8361305d565b915061281e826134db565b602082019050919050565b600061283660248361305d565b915061284182613504565b604082019050919050565b600061285960198361305d565b915061286482613553565b602082019050919050565b600061287c60638361306e565b91506128878261357c565b606382019050919050565b600061289f602c8361305d565b91506128aa82613617565b604082019050919050565b60006128c2600d8361306e565b91506128cd82613666565b600d82019050919050565b60006128e560388361305d565b91506128f08261368f565b604082019050919050565b6000612908602a8361305d565b9150612913826136de565b604082019050919050565b600061292b60298361305d565b91506129368261372d565b604082019050919050565b600061294e602e8361305d565b91506129598261377c565b604082019050919050565b600061297160028361306e565b915061297c826137cb565b600282019050919050565b600061299460208361305d565b915061299f826137f4565b602082019050919050565b60006129b760318361305d565b91506129c28261381d565b604082019050919050565b60006129da602c8361305d565b91506129e58261386c565b604082019050919050565b60006129fd602f8361305d565b9150612a08826138bb565b604082019050919050565b6000612a20600a8361306e565b9150612a2b8261390a565b600a82019050919050565b6000612a4360218361305d565b9150612a4e82613933565b604082019050919050565b6000612a6660388361305d565b9150612a7182613982565b604082019050919050565b6000612a89601d8361306e565b9150612a94826139d1565b601d82019050919050565b6000612aac60318361305d565b9150612ab7826139fa565b604082019050919050565b6000612acf60058361306e565b9150612ada82613a49565b600582019050919050565b612aee816131f8565b82525050565b6000612b0082846126ed565b915081905092915050565b6000612b1782856126ed565b9150612b2382846126ed565b91508190509392505050565b6000612b3b82866126ed565b9150612b4782856126ed565b9150612b5382846126ed565b9150819050949350505050565b6000612b6c828761271e565b9150612b7882866126ed565b9150612b84828561271e565b9150612b9082846126ed565b9150612b9b826128b5565b915081905095945050505050565b6000612bb48261279d565b9150612bc082846126ed565b915081905092915050565b6000612bd682612a13565b9150612be282856126ed565b9150612bed8261286f565b9150612bf982846126ed565b9150612c0482612964565b91508190509392505050565b6000612c1b82612a7c565b9150612c2782846126ed565b915081905092915050565b6000612c3d82612ac2565b9150612c4982846126ed565b915081905092915050565b6000602082019050612c69600083018461265d565b92915050565b6000608082019050612c84600083018761265d565b612c91602083018661265d565b612c9e6040830185612ae5565b8181036060830152612cb0818461267b565b905095945050505050565b6000604082019050612cd0600083018561265d565b612cdd6020830184612ae5565b9392505050565b6000602082019050612cf9600083018461266c565b92915050565b60006020820190508181036000830152612d1981846126b4565b905092915050565b60006060820190508181036000830152612d3b81866126b4565b9050612d4a6020830185612ae5565b612d57604083018461265d565b949350505050565b60006020820190508181036000830152612d78816127c0565b9050919050565b60006020820190508181036000830152612d98816127e3565b9050919050565b60006020820190508181036000830152612db881612806565b9050919050565b60006020820190508181036000830152612dd881612829565b9050919050565b60006020820190508181036000830152612df88161284c565b9050919050565b60006020820190508181036000830152612e1881612892565b9050919050565b60006020820190508181036000830152612e38816128d8565b9050919050565b60006020820190508181036000830152612e58816128fb565b9050919050565b60006020820190508181036000830152612e788161291e565b9050919050565b60006020820190508181036000830152612e9881612941565b9050919050565b60006020820190508181036000830152612eb881612987565b9050919050565b60006020820190508181036000830152612ed8816129aa565b9050919050565b60006020820190508181036000830152612ef8816129cd565b9050919050565b60006020820190508181036000830152612f18816129f0565b9050919050565b60006020820190508181036000830152612f3881612a36565b9050919050565b60006020820190508181036000830152612f5881612a59565b9050919050565b60006020820190508181036000830152612f7881612a9f565b9050919050565b6000602082019050612f946000830184612ae5565b92915050565b6000612fa4612fb5565b9050612fb08282613276565b919050565b6000604051905090565b600067ffffffffffffffff821115612fda57612fd96133ae565b5b612fe3826133dd565b9050602081019050919050565b600067ffffffffffffffff82111561300b5761300a6133ae565b5b613014826133dd565b9050602081019050919050565b60008190508160005260206000209050919050565b600081519050919050565b600081519050919050565b600082825260208201905092915050565b600082825260208201905092915050565b600081905092915050565b6000613084826131f8565b915061308f836131f8565b9250827fffffffffffffffffffffffffffffffffffffffffffffffffffffffffffffffff038211156130c4576130c3613321565b5b828201905092915050565b60006130da826131f8565b91506130e5836131f8565b9250826130f5576130f4613350565b5b828204905092915050565b600061310b826131f8565b9150613116836131f8565b9250817fffffffffffffffffffffffffffffffffffffffffffffffffffffffffffffffff048311821515161561314f5761314e613321565b5b828202905092915050565b6000613165826131f8565b9150613170836131f8565b92508282101561318357613182613321565b5b828203905092915050565b6000613199826131d8565b9050919050565b60008115159050919050565b60007fffffffff0000000000000000000000000000000000000000000000000000000082169050919050565b600073ffffffffffffffffffffffffffffffffffffffff82169050919050565b6000819050919050565b82818337600083830152505050565b60005b8381101561322f578082015181840152602081019050613214565b8381111561323e576000848401525b50505050565b6000600282049050600182168061325c57607f821691505b602082108114156132705761326f61337f565b5b50919050565b61327f826133dd565b810181811067ffffffffffffffff8211171561329e5761329d6133ae565b5b80604052505050565b60006132b2826131f8565b91507fffffffffffffffffffffffffffffffffffffffffffffffffffffffffffffffff8214156132e5576132e4613321565b5b600182019050919050565b60006132fb826131f8565b9150613306836131f8565b92508261331657613315613350565b5b828206905092915050565b7f4e487b7100000000000000000000000000000000000000000000000000000000600052601160045260246000fd5b7f4e487b7100000000000000000000000000000000000000000000000000000000600052601260045260246000fd5b7f4e487b7100000000000000000000000000000000000000000000000000000000600052602260045260246000fd5b7f4e487b7100000000000000000000000000000000000000000000000000000000600052604160045260246000fd5b6000601f19601f8301169050919050565b7f68747470733a2f2f6e6674707265766965772e30786465762e636f6465732f3f60008201527f636f64653d000000000000000000000000000000000000000000000000000000602082015250565b7f4552433732313a207472616e7366657220746f206e6f6e20455243373231526560008201527f63656976657220696d706c656d656e7465720000000000000000000000000000602082015250565b7f4552433732313a207472616e736665722066726f6d20696e636f72726563742060008201527f6f776e6572000000000000000000000000000000000000000000000000000000602082015250565b7f4552433732313a20746f6b656e20616c7265616479206d696e74656400000000600082015250565b7f4552433732313a207472616e7366657220746f20746865207a65726f2061646460008201527f7265737300000000000000000000000000000000000000000000000000000000602082015250565b7f4552433732313a20617070726f766520746f2063616c6c657200000000000000600082015250565b7f222c20226465736372697074696f6e223a20224120686967686c79206163636c60008201527f61696d656420636f6c6c656374696f6e206f6620737175617265732e222c202260208201527f696d616765223a2022646174613a696d6167652f7376672b786d6c3b6261736560408201527f36342c0000000000000000000000000000000000000000000000000000000000606082015250565b7f4552433732313a206f70657261746f7220717565727920666f72206e6f6e657860008201527f697374656e7420746f6b656e0000000000000000000000000000000000000000602082015250565b7f3c2f746578743e3c2f7376673e00000000000000000000000000000000000000600082015250565b7f4552433732313a20617070726f76652063616c6c6572206973206e6f74206f7760008201527f6e6572206e6f7220617070726f76656420666f7220616c6c0000000000000000602082015250565b7f4552433732313a2062616c616e636520717565727920666f7220746865207a6560008201527f726f206164647265737300000000000000000000000000000000000000000000602082015250565b7f4552433732313a206f776e657220717565727920666f72206e6f6e657869737460008201527f656e7420746f6b656e0000000000000000000000000000000000000000000000602082015250565b7f45524337323155524953746f726167653a2055524920736574206f66206e6f6e60008201527f6578697374656e7420746f6b656e000000000000000000000000000000000000602082015250565b7f227d000000000000000000000000000000000000000000000000000000000000600082015250565b7f4552433732313a206d696e7420746f20746865207a65726f2061646472657373600082015250565b7f45524337323155524953746f726167653a2055524920717565727920666f722060008201527f6e6f6e6578697374656e7420746f6b656e000000000000000000000000000000602082015250565b7f4552433732313a20617070726f76656420717565727920666f72206e6f6e657860008201527f697374656e7420746f6b656e0000000000000000000000000000000000000000602082015250565b7f4552433732314d657461646174613a2055524920717565727920666f72206e6f60008201527f6e6578697374656e7420746f6b656e0000000000000000000000000000000000602082015250565b7f7b226e616d65223a202200000000000000000000000000000000000000000000600082015250565b7f4552433732313a20617070726f76616c20746f2063757272656e74206f776e6560008201527f7200000000000000000000000000000000000000000000000000000000000000602082015250565b7f54686572652061726520616c72656164792031302045706963204e4654732e2060008201527f596f752063616e2774206d616b6520616e79206d6f72652e0000000000000000602082015250565b7f646174613a6170706c69636174696f6e2f6a736f6e3b6261736536342c000000600082015250565b7f4552433732313a207472616e736665722063616c6c6572206973206e6f74206f60008201527f776e6572206e6f7220617070726f766564000000000000000000000000000000602082015250565b7f434f4c4f52000000000000000000000000000000000000000000000000000000600082015250565b613a7b8161318e565b8114613a8657600080fd5b50565b613a92816131a0565b8114613a9d57600080fd5b50565b613aa9816131ac565b8114613ab457600080fd5b50565b613ac0816131f8565b8114613acb57600080fd5b5056fe416e204e465420772f20494420257320686173206265656e206d696e74656420746f2025734142434445464748494a4b4c4d4e4f505152535455565758595a6162636465666768696a6b6c6d6e6f707172737475767778797a303132333435363738392b2fa26469706673582212202b0a93f22b952d50f94e8006132f54c97871caafe3c16a31c0838eeada7e6be664736f6c6343000804003354686973206973206d79204e465420636f6e74726163742e2064696e67646f6e67213c73766720786d6c6e733d27687474703a2f2f7777772e77332e6f72672f323030302f73766727207072657365727665417370656374526174696f3d27784d696e594d696e206d656574272076696577426f783d273020302033353020333530273e3c7374796c653e2e62617365207b2066696c6c3a2077686974653b20666f6e742d66616d696c793a2073657269663b20666f6e742d73697a653a20323470783b207d3c2f7374796c653e3c726563742077696474683d273130302527206865696768743d2731303025272066696c6c3d27272f3e3c7465787420783d273530252720793d273530252720636c6173733d27626173652720646f6d696e616e742d626173656c696e653d276d6964646c652720746578742d616e63686f723d276d6964646c65273e",
  "linkReferences": {},
  "deployedLinkReferences": {}
}